{
  "contractName": "wanFarm",
  "abi": [
    {
      "inputs": [
        {
          "internalType": "contract IERC20",
          "name": "_wanWan",
          "type": "address"
        },
        {
          "internalType": "contract IWWAN",
          "name": "_wwan",
          "type": "address"
        }
      ],
      "stateMutability": "nonpayable",
      "type": "constructor"
    },
    {
      "anonymous": false,
      "inputs": [
        {
          "indexed": true,
          "internalType": "address",
          "name": "user",
          "type": "address"
        },
        {
          "indexed": true,
          "internalType": "uint256",
          "name": "pid",
          "type": "uint256"
        },
        {
          "indexed": false,
          "internalType": "uint256",
          "name": "amount",
          "type": "uint256"
        }
      ],
      "name": "Deposit",
      "type": "event"
    },
    {
      "anonymous": false,
      "inputs": [
        {
          "indexed": false,
          "internalType": "address",
          "name": "to",
          "type": "address"
        },
        {
          "indexed": false,
          "internalType": "uint256",
          "name": "amount",
          "type": "uint256"
        }
      ],
      "name": "EmergencyQuitWanwan",
      "type": "event"
    },
    {
      "anonymous": false,
      "inputs": [
        {
          "indexed": true,
          "internalType": "address",
          "name": "user",
          "type": "address"
        },
        {
          "indexed": true,
          "internalType": "uint256",
          "name": "pid",
          "type": "uint256"
        },
        {
          "indexed": false,
          "internalType": "uint256",
          "name": "amount",
          "type": "uint256"
        }
      ],
      "name": "EmergencyWithdraw",
      "type": "event"
    },
    {
      "anonymous": false,
      "inputs": [
        {
          "indexed": true,
          "internalType": "address",
          "name": "previousOwner",
          "type": "address"
        },
        {
          "indexed": true,
          "internalType": "address",
          "name": "newOwner",
          "type": "address"
        }
      ],
      "name": "OwnershipTransferred",
      "type": "event"
    },
    {
      "anonymous": false,
      "inputs": [
        {
          "indexed": false,
          "internalType": "address",
          "name": "to",
          "type": "address"
        },
        {
          "indexed": false,
          "internalType": "uint256",
          "name": "amount",
          "type": "uint256"
        }
      ],
      "name": "QuitWanwan",
      "type": "event"
    },
    {
      "anonymous": false,
      "inputs": [
        {
          "indexed": true,
          "internalType": "address",
          "name": "user",
          "type": "address"
        },
        {
          "indexed": true,
          "internalType": "uint256",
          "name": "pid",
          "type": "uint256"
        },
        {
          "indexed": false,
          "internalType": "uint256",
          "name": "amount",
          "type": "uint256"
        }
      ],
      "name": "Withdraw",
      "type": "event"
    },
    {
      "inputs": [],
      "name": "owner",
      "outputs": [
        {
          "internalType": "address",
          "name": "",
          "type": "address"
        }
      ],
      "stateMutability": "view",
      "type": "function",
      "constant": true
    },
    {
      "inputs": [
        {
          "internalType": "uint256",
          "name": "",
          "type": "uint256"
        }
      ],
      "name": "poolInfo",
      "outputs": [
        {
          "internalType": "contract IERC20",
          "name": "lpToken",
          "type": "address"
        },
        {
          "internalType": "uint256",
          "name": "maxAmountLimit",
          "type": "uint256"
        },
        {
          "internalType": "uint256",
          "name": "currentSupply",
          "type": "uint256"
        },
        {
          "internalType": "uint256",
          "name": "bonusStartBlock",
          "type": "uint256"
        },
        {
          "internalType": "uint256",
          "name": "bonusEndBlock",
          "type": "uint256"
        },
        {
          "internalType": "uint256",
          "name": "lastRewardBlock",
          "type": "uint256"
        },
        {
          "internalType": "uint256",
          "name": "accwanWanPerShare",
          "type": "uint256"
        },
        {
          "internalType": "uint256",
          "name": "rewardPerBlock",
          "type": "uint256"
        },
        {
          "internalType": "uint256",
          "name": "totalDebtReward",
          "type": "uint256"
        },
        {
          "internalType": "address",
          "name": "rewardToken",
          "type": "address"
        }
      ],
      "stateMutability": "view",
      "type": "function",
      "constant": true
    },
    {
      "inputs": [],
      "name": "renounceOwnership",
      "outputs": [],
      "stateMutability": "nonpayable",
      "type": "function"
    },
    {
      "inputs": [
        {
          "internalType": "address",
          "name": "newOwner",
          "type": "address"
        }
      ],
      "name": "transferOwnership",
      "outputs": [],
      "stateMutability": "nonpayable",
      "type": "function"
    },
    {
      "inputs": [
        {
          "internalType": "uint256",
          "name": "",
          "type": "uint256"
        },
        {
          "internalType": "address",
          "name": "",
          "type": "address"
        }
      ],
      "name": "userInfo",
      "outputs": [
        {
          "internalType": "uint256",
          "name": "amount",
          "type": "uint256"
        },
        {
          "internalType": "uint256",
          "name": "rewardDebt",
          "type": "uint256"
        }
      ],
      "stateMutability": "view",
      "type": "function",
      "constant": true
    },
    {
      "inputs": [],
      "name": "wanWan",
      "outputs": [
        {
          "internalType": "contract IERC20",
          "name": "",
          "type": "address"
        }
      ],
      "stateMutability": "view",
      "type": "function",
      "constant": true
    },
    {
      "inputs": [],
      "name": "wwan",
      "outputs": [
        {
          "internalType": "contract IWWAN",
          "name": "",
          "type": "address"
        }
      ],
      "stateMutability": "view",
      "type": "function",
      "constant": true
    },
    {
      "stateMutability": "payable",
      "type": "receive",
      "payable": true
    },
    {
      "inputs": [],
      "name": "poolLength",
      "outputs": [
        {
          "internalType": "uint256",
          "name": "",
          "type": "uint256"
        }
      ],
      "stateMutability": "view",
      "type": "function",
      "constant": true
    },
    {
      "inputs": [
        {
          "internalType": "contract IERC20",
          "name": "_lpToken",
          "type": "address"
        },
        {
          "internalType": "uint256",
          "name": "_maxAmountLimit",
          "type": "uint256"
        },
        {
          "internalType": "uint256",
          "name": "_bonusStartBlock",
          "type": "uint256"
        },
        {
          "internalType": "uint256",
          "name": "_bonusEndBlock",
          "type": "uint256"
        },
        {
          "internalType": "uint256",
          "name": "_rewardPerBlock",
          "type": "uint256"
        },
        {
          "internalType": "address",
          "name": "_rewardToken",
          "type": "address"
        }
      ],
      "name": "add",
      "outputs": [],
      "stateMutability": "nonpayable",
      "type": "function"
    },
    {
      "inputs": [
        {
          "internalType": "uint256",
          "name": "_pid",
          "type": "uint256"
        },
        {
          "internalType": "address",
          "name": "_user",
          "type": "address"
        }
      ],
      "name": "pendingwanWan",
      "outputs": [
        {
          "internalType": "uint256",
          "name": "",
          "type": "uint256"
        },
        {
          "internalType": "uint256",
          "name": "",
          "type": "uint256"
        }
      ],
      "stateMutability": "view",
      "type": "function",
      "constant": true
    },
    {
      "inputs": [
        {
          "internalType": "uint256",
          "name": "_pid",
          "type": "uint256"
        },
        {
          "internalType": "uint256",
          "name": "_amount",
          "type": "uint256"
        }
      ],
      "name": "deposit",
      "outputs": [],
      "stateMutability": "nonpayable",
      "type": "function"
    },
    {
      "inputs": [
        {
          "internalType": "uint256",
          "name": "_pid",
          "type": "uint256"
        },
        {
          "internalType": "uint256",
          "name": "_amount",
          "type": "uint256"
        }
      ],
      "name": "withdraw",
      "outputs": [],
      "stateMutability": "nonpayable",
      "type": "function"
    },
    {
      "inputs": [
        {
          "internalType": "uint256",
          "name": "_pid",
          "type": "uint256"
        }
      ],
      "name": "emergencyWithdraw",
      "outputs": [],
      "stateMutability": "nonpayable",
      "type": "function"
    },
    {
      "inputs": [
        {
          "internalType": "address payable",
          "name": "_to",
          "type": "address"
        }
      ],
      "name": "quitwanWan",
      "outputs": [],
      "stateMutability": "nonpayable",
      "type": "function"
    },
    {
      "inputs": [
        {
          "internalType": "address payable",
          "name": "_to",
          "type": "address"
        },
        {
          "internalType": "address",
          "name": "rewardToken",
          "type": "address"
        }
      ],
      "name": "quitRewardToken",
      "outputs": [],
      "stateMutability": "nonpayable",
      "type": "function"
    }
  ],
  "bytecode": "0x608060405234801561001057600080fd5b506040516123c03803806123c08339818101604052604081101561003357600080fd5b508051602090910151600061004f6401000000006100ca810204565b60008054600160a060020a031916600160a060020a0383169081178255604051929350917f8be0079c531659141344cd1fd0a4f28419497f9722a3daafe3b4186f6b6457e0908290a35060018054600160a060020a03938416600160a060020a031991821617909155600280549290931691161790556100ce565b3390565b6122e3806100dd6000396000f3fe608060405260043610610109576000357c0100000000000000000000000000000000000000000000000000000000900480638da5cb5b116100a7578063d0a6330711610076578063d0a63307146103f4578063e2bbb15814610409578063f2fde38b14610439578063f8e11ba71461046c57610172565b80638da5cb5b1461032357806393f1a40b14610354578063bbeff0e6146103a6578063c799d6c7146103bb57610172565b80632e6e4aaf116100e35780632e6e4aaf14610261578063441a3e70146102b45780635312ea8e146102e4578063715018a61461030e57610172565b8063081e3eda1461017757806312eefa311461019e5780631526fe27146101d957610172565b3661017257600254600160a060020a03163314610170576040805160e560020a62461bcd02815260206004820152601c60248201527f4f6e6c7920737570706f72742076616c75652066726f6d205757414e00000000604482015290519081900360640190fd5b005b600080fd5b34801561018357600080fd5b5061018c61049f565b60408051918252519081900360200190f35b3480156101aa57600080fd5b50610170600480360360408110156101c157600080fd5b50600160a060020a03813581169160200135166104a5565b3480156101e557600080fd5b50610203600480360360208110156101fc57600080fd5b50356106c1565b60408051600160a060020a039b8c168152602081019a909a52898101989098526060890196909652608088019490945260a087019290925260c086015260e08501526101008401529092166101208201529051908190036101400190f35b34801561026d57600080fd5b50610170600480360360c081101561028457600080fd5b50600160a060020a03813581169160208101359160408201359160608101359160808201359160a001351661072e565b3480156102c057600080fd5b50610170600480360360408110156102d757600080fd5b5080359060200135610aa6565b3480156102f057600080fd5b506101706004803603602081101561030757600080fd5b5035610e24565b34801561031a57600080fd5b50610170610f3a565b34801561032f57600080fd5b50610338610fec565b60408051600160a060020a039092168252519081900360200190f35b34801561036057600080fd5b5061038d6004803603604081101561037757600080fd5b5080359060200135600160a060020a0316610ffb565b6040805192835260208301919091528051918290030190f35b3480156103b257600080fd5b5061033861101f565b3480156103c757600080fd5b5061038d600480360360408110156103de57600080fd5b5080359060200135600160a060020a031661102e565b34801561040057600080fd5b50610338611181565b34801561041557600080fd5b506101706004803603604081101561042c57600080fd5b5080359060200135611190565b34801561044557600080fd5b506101706004803603602081101561045c57600080fd5b5035600160a060020a0316611589565b34801561047857600080fd5b506101706004803603602081101561048f57600080fd5b5035600160a060020a0316611694565b60035490565b6104ad611a8a565b600054600160a060020a03908116911614610500576040805160e560020a62461bcd028152602060048201819052602482015260008051602061221b833981519152604482015290519081900360640190fd5b600160a060020a03821661055e576040805160e560020a62461bcd02815260206004820152600860248201527f5f746f203d3d2030000000000000000000000000000000000000000000000000604482015290519081900360640190fd5b600081600160a060020a03166370a08231306040518263ffffffff167c01000000000000000000000000000000000000000000000000000000000281526004018082600160a060020a0316815260200191505060206040518083038186803b1580156105c957600080fd5b505afa1580156105dd573d6000803e3d6000fd5b505050506040513d60208110156105f357600080fd5b50516040805160e060020a63a9059cbb028152600160a060020a0386811660048301526024820184905291519293509084169163a9059cbb916044808201926020929091908290030181600087803b15801561064e57600080fd5b505af1158015610662573d6000803e3d6000fd5b505050506040513d602081101561067857600080fd5b50516106bc576040805160e560020a62461bcd0281526020600482015260156024820152600080516020612166833981519152604482015290519081900360640190fd5b505050565b600381815481106106ce57fe5b60009182526020909120600a90910201805460018201546002830154600384015460048501546005860154600687015460078801546008890154600990990154600160a060020a039889169a50969895979496939592949193909291168a565b610736611a8a565b600054600160a060020a03908116911614610789576040805160e560020a62461bcd028152602060048201819052602482015260008051602061221b833981519152604482015290519081900360640190fd5b8243106107e0576040805160e560020a62461bcd02815260206004820152601d60248201527f626c6f636b2e6e756d626572203e3d20626f6e7573456e64426c6f636b000000604482015290519081900360640190fd5b8284106108215760405160e560020a62461bcd0281526004018080602001828103825260228152602001806121d86022913960400191505060405180910390fd5b600160a060020a03861661087f576040805160e560020a62461bcd02815260206004820152600d60248201527f5f6c70546f6b656e203d3d203000000000000000000000000000000000000000604482015290519081900360640190fd5b600084431161088e5784610890565b435b6040805161014081018252600160a060020a03998a168152602081019889526000918101828152606082019889526080820197885260a0820193845260c0820183815260e083019788526101008301848152968c1661012084019081526003805460018101825595529251600a9094027fc2575a0e9e593c00f959f8c92f12db2869c3395a3b0502d05e2516446f71f85b81018054958e1673ffffffffffffffffffffffffffffffffffffffff199687161790559a517fc2575a0e9e593c00f959f8c92f12db2869c3395a3b0502d05e2516446f71f85c8c015590517fc2575a0e9e593c00f959f8c92f12db2869c3395a3b0502d05e2516446f71f85d8b015597517fc2575a0e9e593c00f959f8c92f12db2869c3395a3b0502d05e2516446f71f85e8a015595517fc2575a0e9e593c00f959f8c92f12db2869c3395a3b0502d05e2516446f71f85f89015590517fc2575a0e9e593c00f959f8c92f12db2869c3395a3b0502d05e2516446f71f86088015594517fc2575a0e9e593c00f959f8c92f12db2869c3395a3b0502d05e2516446f71f8618701555090517fc2575a0e9e593c00f959f8c92f12db2869c3395a3b0502d05e2516446f71f862850155517fc2575a0e9e593c00f959f8c92f12db2869c3395a3b0502d05e2516446f71f863840155517fc2575a0e9e593c00f959f8c92f12db2869c3395a3b0502d05e2516446f71f8649092018054929093169116179055565b6003548210610aed576040805160e560020a62461bcd028152602060048201526016602482015260008051602061228e833981519152604482015290519081900360640190fd5b600060038381548110610afc57fe5b6000918252602080832086845260048252604080852033865290925292208054600a9092029092019250831115610b7d576040805160e560020a62461bcd02815260206004820152601260248201527f77697468647261773a206e6f7420676f6f640000000000000000000000000000604482015290519081900360640190fd5b610b8684611a8e565b6000610bc08260010154610bba64e8d4a51000610bb487600601548760000154611b5a90919063ffffffff16565b90611bbf565b90611c01565b90508315610c00578154610bd49085611c01565b82556002830154610be59085611c01565b60028401558254610c0090600160a060020a03163386611c43565b60018201546008840154610c1391611c01565b600884015560068301548254610c339164e8d4a5100091610bb491611b5a565b600183018190556008840154610c4891611cad565b60088401558015610de6576002546009840154600160a060020a0390811691161415610d1f57600254604080517f2e1a7d4d000000000000000000000000000000000000000000000000000000008152600481018490529051600160a060020a0390921691632e1a7d4d9160248082019260009290919082900301818387803b158015610cd457600080fd5b505af1158015610ce8573d6000803e3d6000fd5b505060405133925083156108fc02915083906000818181858888f19350505050158015610d19573d6000803e3d6000fd5b50610de6565b60098301546040805160e060020a63a9059cbb028152336004820152602481018490529051600160a060020a039092169163a9059cbb916044808201926020929091908290030181600087803b158015610d7857600080fd5b505af1158015610d8c573d6000803e3d6000fd5b505050506040513d6020811015610da257600080fd5b5051610de6576040805160e560020a62461bcd0281526020600482015260156024820152600080516020612166833981519152604482015290519081900360640190fd5b604080518581529051869133917ff279e6a1f5e320cca91135676d9cb6e44ca8a08c0b88342bcdb1144f6511b5689181900360200190a35050505050565b6003548110610e6b576040805160e560020a62461bcd028152602060048201526016602482015260008051602061228e833981519152604482015290519081900360640190fd5b600060038281548110610e7a57fe5b6000918252602080832085845260048252604080852033865290925292208054600a90920290920192508015610efd5760018201546008840154610ebd91611c01565b600884015581546002840154610ed291611c01565b600284015581548354610ef291600160a060020a03909116903390611c43565b600080835560018301555b604080518281529051859133917fbb757047c2b5f3974fe26b7c10f732e7bce710b0952a71082702781e62ae05959181900360200190a350505050565b610f42611a8a565b600054600160a060020a03908116911614610f95576040805160e560020a62461bcd028152602060048201819052602482015260008051602061221b833981519152604482015290519081900360640190fd5b60008054604051600160a060020a03909116907f8be0079c531659141344cd1fd0a4f28419497f9722a3daafe3b4186f6b6457e0908390a36000805473ffffffffffffffffffffffffffffffffffffffff19169055565b600054600160a060020a031690565b60046020908152600092835260408084209091529082529020805460019091015482565b600254600160a060020a031681565b6003546000908190841061107a576040805160e560020a62461bcd028152602060048201526016602482015260008051602061228e833981519152604482015290519081900360640190fd5b60006003858154811061108957fe5b6000918252602080832088845260048083526040808620600160a060020a038b168752909352918420600a93909302016006810154918101549094509192909143106110d95783600401546110db565b435b90508360050154811180156110f35750600284015415155b15611154576000611108856005015483611d0a565b90506000611123866007015483611b5a90919063ffffffff16565b905061114f6111488760020154610bb464e8d4a5100085611b5a90919063ffffffff16565b8590611cad565b935050505b8254600184015461117290610bba64e8d4a51000610bb48588611b5a565b95509550505050509250929050565b600154600160a060020a031681565b60035482106111d7576040805160e560020a62461bcd028152602060048201526016602482015260008051602061228e833981519152604482015290519081900360640190fd5b6000600383815481106111e657fe5b90600052602060002090600a0201905080600401544310611251576040805160e560020a62461bcd02815260206004820152600b60248201527f616c726561647920656e64000000000000000000000000000000000000000000604482015290519081900360640190fd5b806001015481600201541061129a5760405160e560020a62461bcd02815260040180806020018281038252602981526020018061223b6029913960400191505060405180910390fd5b600083815260046020908152604080832033845290915290206112bc84611a8e565b60006112ea8260010154610bba64e8d4a51000610bb487600601548760000154611b5a90919063ffffffff16565b90508380156113645760028401546000906113059083611cad565b90508460010154811115611329576002850154600186015461132691611c01565b91505b845461134090600160a060020a0316333085611d16565b835461134c9083611cad565b8455600285015461135d9083611cad565b6002860155505b6001830154600885015461137791611c01565b6008850155600684015483546113979164e8d4a5100091610bb491611b5a565b6001840181905560088501546113ac91611cad565b6008850155811561154a576002546009850154600160a060020a039081169116141561148357600254604080517f2e1a7d4d000000000000000000000000000000000000000000000000000000008152600481018590529051600160a060020a0390921691632e1a7d4d9160248082019260009290919082900301818387803b15801561143857600080fd5b505af115801561144c573d6000803e3d6000fd5b505060405133925084156108fc02915084906000818181858888f1935050505015801561147d573d6000803e3d6000fd5b5061154a565b60098401546040805160e060020a63a9059cbb028152336004820152602481018590529051600160a060020a039092169163a9059cbb916044808201926020929091908290030181600087803b1580156114dc57600080fd5b505af11580156114f0573d6000803e3d6000fd5b505050506040513d602081101561150657600080fd5b505161154a576040805160e560020a62461bcd0281526020600482015260156024820152600080516020612166833981519152604482015290519081900360640190fd5b604080518281529051879133917f90890809c654f11d6e72a28fa60149770a0d11ec6c92319d6ceb2bb0a4ea1a159181900360200190a3505050505050565b611591611a8a565b600054600160a060020a039081169116146115e4576040805160e560020a62461bcd028152602060048201819052602482015260008051602061221b833981519152604482015290519081900360640190fd5b600160a060020a03811661162c5760405160e560020a62461bcd0281526004018080602001828103825260268152602001806121406026913960400191505060405180910390fd5b60008054604051600160a060020a03808516939216917f8be0079c531659141344cd1fd0a4f28419497f9722a3daafe3b4186f6b6457e091a36000805473ffffffffffffffffffffffffffffffffffffffff1916600160a060020a0392909216919091179055565b61169c611a8a565b600054600160a060020a039081169116146116ef576040805160e560020a62461bcd028152602060048201819052602482015260008051602061221b833981519152604482015290519081900360640190fd5b600160a060020a03811661174d576040805160e560020a62461bcd02815260206004820152600860248201527f5f746f203d3d2030000000000000000000000000000000000000000000000000604482015290519081900360640190fd5b600154604080517f70a082310000000000000000000000000000000000000000000000000000000081523060048201529051600092600160a060020a0316916370a08231916024808301926020929190829003018186803b1580156117b157600080fd5b505afa1580156117c5573d6000803e3d6000fd5b505050506040513d60208110156117db57600080fd5b505160035490915060005b81811015611a84576000600382815481106117fd57fe5b90600052602060002090600a02019050806004015443116118525760405160e560020a62461bcd02815260040180806020018281038252602c8152602001806121ac602c913960400191505060405180910390fd5b61185b82611a8e565b60006118898260080154610bba64e8d4a51000610bb486600601548760020154611b5a90919063ffffffff16565b90506118958582611c01565b6002546009840154919650600160a060020a039182169116141561196d57600254604080517f2e1a7d4d000000000000000000000000000000000000000000000000000000008152600481018890529051600160a060020a0390921691632e1a7d4d9160248082019260009290919082900301818387803b15801561191957600080fd5b505af115801561192d573d6000803e3d6000fd5b5050604051600160a060020a038916925087156108fc02915087906000818181858888f19350505050158015611967573d6000803e3d6000fd5b50611a36565b60098201546040805160e060020a63a9059cbb028152600160a060020a038981166004830152602482018990529151919092169163a9059cbb9160448083019260209291908290030181600087803b1580156119c857600080fd5b505af11580156119dc573d6000803e3d6000fd5b505050506040513d60208110156119f257600080fd5b5051611a36576040805160e560020a62461bcd0281526020600482015260156024820152600080516020612166833981519152604482015290519081900360640190fd5b60408051600160a060020a03881681526020810187905281517ff1e202d5c5d72761702da920c2f7d898e361f68fb9fc32cced755332d4349e6e929181900390910190a150506001016117e6565b50505050565b3390565b600060038281548110611a9d57fe5b90600052602060002090600a02019050600081600401544310611ac4578160040154611ac6565b435b905081600501548111611ada575050611b57565b6002820154611aee57600590910155611b57565b6000611afe836005015483611d0a565b90506000611b19846007015483611b5a90919063ffffffff16565b9050611b49611b3e8560020154610bb464e8d4a5100085611b5a90919063ffffffff16565b600686015490611cad565b600685015550506005909101555b50565b600082611b6957506000611bb9565b82820282848281611b7657fe5b0414611bb65760405160e560020a62461bcd0281526004018080602001828103825260218152602001806121fa6021913960400191505060405180910390fd5b90505b92915050565b6000611bb683836040518060400160405280601a81526020017f536166654d6174683a206469766973696f6e206279207a65726f000000000000815250611d9e565b6000611bb683836040518060400160405280601e81526020017f536166654d6174683a207375627472616374696f6e206f766572666c6f770000815250611e45565b60408051600160a060020a038416602482015260448082018490528251808303909101815260649091019091526020810180517bffffffffffffffffffffffffffffffffffffffffffffffffffffffff1660e060020a63a9059cbb021790526106bc908490611ea2565b600082820183811015611bb6576040805160e560020a62461bcd02815260206004820152601b60248201527f536166654d6174683a206164646974696f6e206f766572666c6f770000000000604482015290519081900360640190fd5b6000611bb68284611c01565b60408051600160a060020a0380861660248301528416604482015260648082018490528251808303909101815260849091019091526020810180517bffffffffffffffffffffffffffffffffffffffffffffffffffffffff167f23b872dd00000000000000000000000000000000000000000000000000000000179052611a84908590611ea2565b60008183611e2d5760405160e560020a62461bcd0281526004018080602001828103825283818151815260200191508051906020019080838360005b83811015611df2578181015183820152602001611dda565b50505050905090810190601f168015611e1f5780820380516001836020036101000a031916815260200191505b509250505060405180910390fd5b506000838581611e3957fe5b049150505b9392505050565b60008184841115611e9a5760405160e560020a62461bcd028152602060048201818152835160248401528351909283926044909101919085019080838360008315611df2578181015183820152602001611dda565b505050900390565b6060611ef7826040518060400160405280602081526020017f5361666545524332303a206c6f772d6c6576656c2063616c6c206661696c656481525085600160a060020a0316611f569092919063ffffffff16565b8051909150156106bc57808060200190516020811015611f1657600080fd5b50516106bc5760405160e560020a62461bcd02815260040180806020018281038252602a815260200180612264602a913960400191505060405180910390fd5b6060611f658484600085611f6d565b949350505050565b60603031831115611fb25760405160e560020a62461bcd0281526004018080602001828103825260268152602001806121866026913960400191505060405180910390fd5b611fbb856120d0565b61200f576040805160e560020a62461bcd02815260206004820152601d60248201527f416464726573733a2063616c6c20746f206e6f6e2d636f6e7472616374000000604482015290519081900360640190fd5b6000606086600160a060020a031685876040518082805190602001908083835b6020831061204e5780518252601f19909201916020918201910161202f565b6001836020036101000a03801982511681845116808217855250505050505090500191505060006040518083038185875af1925050503d80600081146120b0576040519150601f19603f3d011682016040523d82523d6000602084013e6120b5565b606091505b50915091506120c58282866120d6565b979650505050505050565b3b151590565b606083156120e5575081611e3e565b8251156120f55782518084602001fd5b60405160e560020a62461bcd028152602060048201818152845160248401528451859391928392604401919085019080838360008315611df2578181015183820152602001611dda56fe4f776e61626c653a206e6577206f776e657220697320746865207a65726f20616464726573737472616e7366657220746f6b656e206661696c65640000000000000000000000416464726573733a20696e73756666696369656e742062616c616e636520666f722063616c6c7175697457616e77616e20626c6f636b2e6e756d626572203c3d207069642e626f6e7573456e64426c6f636b5f626f6e75735374617274426c6f636b203e3d205f626f6e7573456e64426c6f636b536166654d6174683a206d756c7469706c69636174696f6e206f766572666c6f774f776e61626c653a2063616c6c6572206973206e6f7420746865206f776e6572706f6f6c2e63757272656e74537570706c79203e3d20706f6f6c2e6d6178416d6f756e744c696d69745361666545524332303a204552433230206f7065726174696f6e20646964206e6f742073756363656564706964203e3d20706f6f6c496e666f2e6c656e67746800000000000000000000a2646970667358221220588f00857b0e93bc90c425f1e84def2208f483812425f5cee6e02644ba03d00464736f6c634300060c0033",
  "immutableReferences": {},
  "source": "// SPDX-License-Identifier: MIT\npragma solidity 0.6.12;\n\n\nimport \"@openzeppelin/contracts/token/ERC20/IERC20.sol\";\nimport \"@openzeppelin/contracts/token/ERC20/SafeERC20.sol\";\nimport \"@openzeppelin/contracts/utils/EnumerableSet.sol\";\nimport \"@openzeppelin/contracts/math/SafeMath.sol\";\nimport \"@openzeppelin/contracts/access/Ownable.sol\";\nimport './IWWAN.sol';\n\ncontract wanFarm is Ownable {\n    using SafeMath for uint256;\n    using SafeERC20 for IERC20;\n\n    // Info of each user.\n    struct UserInfo {\n        uint256 amount;     // How many LP tokens the user has provided.\n        uint256 rewardDebt; // Reward debt. See explanation below.\n        //\n        // We do some fancy math here. Basically, any point in time, the amount of wanWans\n        // entitled to a user but is pending to be distributed is:\n        //\n        //   pending reward = (user.amount * pool.accwanWanPerShare) - user.rewardDebt\n        //\n        // Whenever a user deposits or withdraws LP tokens to a pool. Here's what happens:\n        //   1. The pool's `accwanWanPerShare` (and `lastRewardBlock`) gets updated.\n        //   2. User receives the pending reward sent to his/her address.\n        //   3. User's `amount` gets updated.\n        //   4. User's `rewardDebt` gets updated.\n    }\n\n    // Info of each pool.\n    struct PoolInfo {\n        IERC20  lpToken;          // Address of LP token contract.\n        uint256 maxAmountLimit;   //\n        uint256 currentSupply;   //\n        uint256 bonusStartBlock;  //\n        uint256 bonusEndBlock;    // Block number when bonus wanWan period ends.\n\n        uint256 lastRewardBlock;  // Last block number that wanWans distribution occurs.\n        uint256 accwanWanPerShare;// Accumulated wanWans per share, times 1e12. See below.\n        uint256 rewardPerBlock;   // wanWan tokens created per block.\n        uint256 totalDebtReward;  //\n        address rewardToken;      \n    }\n\n    IERC20 public wanWan;         // The wanWan TOKEN!\n    IWWAN public wwan;            // The WWAN contract\n    PoolInfo[] public poolInfo;   // Info of each pool.\n    mapping (uint256 => mapping (address => UserInfo)) public userInfo;// Info of each user that stakes LP tokens.\n\n    event Deposit(address indexed user, uint256 indexed pid, uint256 amount);\n    event Withdraw(address indexed user, uint256 indexed pid, uint256 amount);\n    event EmergencyWithdraw(address indexed user, uint256 indexed pid, uint256 amount);\n    event QuitWanwan(address to, uint256 amount);\n    event EmergencyQuitWanwan(address to, uint256 amount);\n\n    constructor(IERC20 _wanWan, IWWAN _wwan) public {\n        wanWan = _wanWan;\n        wwan = _wwan;\n    }\n\n    function poolLength() external view returns (uint256) {\n        return poolInfo.length;\n    }\n\n    // Add a new lp to the pool. Can only be called by the owner.\n    // XXX DO NOT add the same LP token more than once. Rewards will be messed up if you do.\n    function add(IERC20 _lpToken,\n                 uint256 _maxAmountLimit,\n                 uint256 _bonusStartBlock,\n                 uint256 _bonusEndBlock,\n                 uint256 _rewardPerBlock,\n                 address _rewardToken\n                 ) public onlyOwner {\n        require(block.number < _bonusEndBlock, \"block.number >= bonusEndBlock\");\n        require(_bonusStartBlock < _bonusEndBlock, \"_bonusStartBlock >= _bonusEndBlock\");\n        require(address(_lpToken) != address(0), \"_lpToken == 0\");\n        // uint256 length = poolInfo.length;\n        // for (uint256 pid = 0; pid < length; ++pid) {\n        //     require(poolInfo[pid].lpToken != _lpToken, \"token already exist\");\n        // }\n        uint256 lastRewardBlock = block.number > _bonusStartBlock ? block.number : _bonusStartBlock;\n        poolInfo.push(PoolInfo({\n            lpToken: _lpToken,\n            maxAmountLimit: _maxAmountLimit,\n            currentSupply: 0,\n            bonusStartBlock: _bonusStartBlock,\n            bonusEndBlock: _bonusEndBlock,\n            lastRewardBlock: lastRewardBlock,\n            accwanWanPerShare: 0,\n            rewardPerBlock: _rewardPerBlock,\n            totalDebtReward: 0,\n            rewardToken: _rewardToken\n        }));\n    }\n\n    // Return reward multiplier over the given _from to _to block.\n    function getMultiplier(uint256 _from, uint256 _to) internal pure returns (uint256) {\n        return _to.sub(_from);\n    }\n\n    // View function to see pending wanWans on frontend.\n    function pendingwanWan(uint256 _pid, address _user) external view returns (uint256,uint256) {\n        require(_pid < poolInfo.length,\"pid >= poolInfo.length\");\n        PoolInfo storage pool = poolInfo[_pid];\n        UserInfo storage user = userInfo[_pid][_user];\n        uint256 accwanWanPerShare = pool.accwanWanPerShare;\n\n        uint256 curBlockNumber = (block.number < pool.bonusEndBlock) ? block.number : pool.bonusEndBlock;\n        if (curBlockNumber > pool.lastRewardBlock && pool.currentSupply != 0) {\n            uint256 multiplier = getMultiplier(pool.lastRewardBlock, curBlockNumber);\n            uint256 wanWanReward = multiplier.mul(pool.rewardPerBlock);\n            accwanWanPerShare = accwanWanPerShare.add(wanWanReward.mul(1e12).div(pool.currentSupply));\n        }\n        return (user.amount, user.amount.mul(accwanWanPerShare).div(1e12).sub(user.rewardDebt));\n    }\n\n    // Update reward variables of the given pool to be up-to-date.\n    function updatePool(uint256 _pid) internal {\n        PoolInfo storage pool = poolInfo[_pid];\n        uint256 curBlockNumber = (block.number < pool.bonusEndBlock) ? block.number : pool.bonusEndBlock;\n        if (curBlockNumber <= pool.lastRewardBlock) {\n            return;\n        }\n\n        if (pool.currentSupply == 0) {\n            pool.lastRewardBlock = curBlockNumber;\n            return;\n        }\n\n        uint256 multiplier = getMultiplier(pool.lastRewardBlock, curBlockNumber);\n        uint256 wanWanReward = multiplier.mul(pool.rewardPerBlock);\n        pool.accwanWanPerShare = pool.accwanWanPerShare.add(wanWanReward.mul(1e12).div(pool.currentSupply));\n        pool.lastRewardBlock = curBlockNumber;\n    }\n\n    // Deposit LP tokens to MasterChef for wanWan allocation.\n    function deposit(uint256 _pid, uint256 _amount) public {\n        require(_pid < poolInfo.length, \"pid >= poolInfo.length\");\n        PoolInfo storage pool = poolInfo[_pid];\n        require(block.number < pool.bonusEndBlock,\"already end\");\n        require(pool.currentSupply < pool.maxAmountLimit, \"pool.currentSupply >= pool.maxAmountLimit\");\n        UserInfo storage user = userInfo[_pid][msg.sender];\n        updatePool(_pid);\n        uint256 pending = user.amount.mul(pool.accwanWanPerShare).div(1e12).sub(user.rewardDebt);\n        \n        uint256 acceptAmount = _amount;\n        if(acceptAmount > 0) {\n            uint256 newCurSupploy = pool.currentSupply.add(acceptAmount);\n            if(newCurSupploy > pool.maxAmountLimit) {\n                acceptAmount = pool.maxAmountLimit.sub(pool.currentSupply);\n            }\n            pool.lpToken.safeTransferFrom(address(msg.sender), address(this), acceptAmount);\n            user.amount = user.amount.add(acceptAmount);\n            pool.currentSupply = pool.currentSupply.add(acceptAmount);\n        }\n        pool.totalDebtReward = pool.totalDebtReward.sub(user.rewardDebt);\n        user.rewardDebt = user.amount.mul(pool.accwanWanPerShare).div(1e12);\n        pool.totalDebtReward = pool.totalDebtReward.add(user.rewardDebt);\n\n        if(pending > 0) {\n            if (pool.rewardToken == address(wwan)) { // convert wwan to wan \n                wwan.withdraw(pending);\n                msg.sender.transfer(pending);\n            } else {\n                require(IERC20(pool.rewardToken).transfer(msg.sender, pending), 'transfer token failed');\n            }\n        }\n\n        emit Deposit(msg.sender, _pid, acceptAmount);\n    }\n\n    // Withdraw LP tokens from MasterChef.\n    function withdraw(uint256 _pid, uint256 _amount) public {\n        require(_pid < poolInfo.length, \"pid >= poolInfo.length\");\n        PoolInfo storage pool = poolInfo[_pid];\n        UserInfo storage user = userInfo[_pid][msg.sender];\n        require(user.amount >= _amount, \"withdraw: not good\");\n        updatePool(_pid);\n        uint256 pending = user.amount.mul(pool.accwanWanPerShare).div(1e12).sub(user.rewardDebt);\n        \n        if(_amount > 0) {\n            user.amount = user.amount.sub(_amount);\n            pool.currentSupply = pool.currentSupply.sub(_amount);\n            pool.lpToken.safeTransfer(address(msg.sender), _amount);\n        }\n\n        pool.totalDebtReward = pool.totalDebtReward.sub(user.rewardDebt);\n        user.rewardDebt = user.amount.mul(pool.accwanWanPerShare).div(1e12);\n        pool.totalDebtReward = pool.totalDebtReward.add(user.rewardDebt);\n\n        if(pending > 0) {\n            if (pool.rewardToken == address(wwan)) { // convert wwan to wan \n                wwan.withdraw(pending);\n                msg.sender.transfer(pending);\n            } else {\n                require(IERC20(pool.rewardToken).transfer(msg.sender, pending), 'transfer token failed');\n            }\n        }\n        emit Withdraw(msg.sender, _pid, _amount);\n    }\n\n    // Withdraw without caring about rewards. EMERGENCY ONLY.\n    function emergencyWithdraw(uint256 _pid) public {\n        require(_pid < poolInfo.length, \"pid >= poolInfo.length\");\n        PoolInfo storage pool = poolInfo[_pid];\n        UserInfo storage user = userInfo[_pid][msg.sender];\n        uint256 amount = user.amount;\n        if(user.amount > 0){\n            pool.totalDebtReward = pool.totalDebtReward.sub(user.rewardDebt);\n            pool.currentSupply = pool.currentSupply.sub(user.amount);\n            pool.lpToken.safeTransfer(address(msg.sender), user.amount);\n\n            user.amount = 0;\n            user.rewardDebt = 0;\n        }\n        emit EmergencyWithdraw(msg.sender, _pid, amount);\n    }\n\n    // Safe wanWan transfer function, just in case if rounding error causes pool to not have enough wanWan.\n    // function safewanWanTransfer(address _to, uint256 _amount) internal {\n    //     uint256 wanWanBal = wanWan.balanceOf(address(this));\n    //     if (_amount > wanWanBal) {\n    //         wanWan.transfer(_to, wanWanBal);\n    //     } else {\n    //         wanWan.transfer(_to, _amount);\n    //     }\n    // }\n\n    function quitwanWan(address payable _to) public onlyOwner {\n        require(_to != address(0), \"_to == 0\");\n        uint256 wanWanBal = wanWan.balanceOf(address(this));\n        uint256 length = poolInfo.length;\n        for (uint256 pid = 0; pid < length; ++pid) {\n            PoolInfo storage pool = poolInfo[pid];\n            require(block.number > pool.bonusEndBlock, \"quitWanwan block.number <= pid.bonusEndBlock\");\n            updatePool(pid);\n            uint256 wanWanReward = pool.currentSupply.mul(pool.accwanWanPerShare).div(1e12).sub(pool.totalDebtReward);\n            wanWanBal = wanWanBal.sub(wanWanReward);\n            if (pool.rewardToken == address(wwan)) { // convert wwan to wan \n                wwan.withdraw(wanWanBal);\n                _to.transfer(wanWanBal);\n            } else {\n                require(IERC20(pool.rewardToken).transfer(_to, wanWanBal), 'transfer token failed');\n            }\n            emit QuitWanwan(_to, wanWanBal);\n        }\n    }\n\n    function quitRewardToken(address payable _to, address rewardToken) public onlyOwner {\n        require(_to != address(0), \"_to == 0\");\n        uint balance = IERC20(rewardToken).balanceOf(address(this));\n        require(IERC20(rewardToken).transfer(_to, balance), 'transfer token failed');\n    }\n\n    // function emergencyQuitwanWan(address _to) public onlyOwner {\n    //     require(_to != address(0), \"_to == 0\");\n    //     uint256 length = poolInfo.length;\n    //     for (uint256 pid = 0; pid < length; ++pid) {\n    //         PoolInfo storage pool = poolInfo[pid];\n    //         uint256 lpSupply = pool.lpToken.balanceOf(address(this));\n    //         pool.lpToken.safeTransfer(_to, lpSupply);\n    //     }\n    //     uint256 wanWanBal = wanWan.balanceOf(address(this));\n    //     wanWan.transfer(_to, wanWanBal);\n    //     emit EmergencyQuitWanwan(_to, wanWanBal);\n    // }\n\n    receive() external payable {\n        require(msg.sender == address(wwan), \"Only support value from WWAN\"); // only accept WAN via fallback from the WWAN contract\n    }\n}\n",
  "sourcePath": "/Users/molin/workspace/dapp/wanswap/wanswap-hive-contracts/contracts/wanFarm.sol",
  "compiler": {
    "name": "solc",
    "version": "0.6.12+commit.27d51765.Emscripten.clang"
  },
  "schemaVersion": "3.1.0",
  "updatedAt": "2020-12-24T10:16:11.674Z",
  "networkType": "ethereum",
  "devdoc": {
    "kind": "dev",
    "methods": {
      "owner()": {
        "details": "Returns the address of the current owner."
      },
      "renounceOwnership()": {
        "details": "Leaves the contract without owner. It will not be possible to call `onlyOwner` functions anymore. Can only be called by the current owner. NOTE: Renouncing ownership will leave the contract without an owner, thereby removing any functionality that is only available to the owner."
      },
      "transferOwnership(address)": {
        "details": "Transfers ownership of the contract to a new account (`newOwner`). Can only be called by the current owner."
      }
    },
    "version": 1
  },
  "userdoc": {
    "kind": "user",
    "methods": {},
    "version": 1
  }
}