{
  "contractName": "WanSwapHive",
  "abi": [
    {
      "inputs": [
        {
          "internalType": "contract IWWAN",
          "name": "_wwan",
          "type": "address"
        }
      ],
      "stateMutability": "nonpayable",
      "type": "constructor"
    },
    {
      "anonymous": false,
      "inputs": [
        {
          "indexed": true,
          "internalType": "address",
          "name": "user",
          "type": "address"
        },
        {
          "indexed": true,
          "internalType": "uint256",
          "name": "pid",
          "type": "uint256"
        },
        {
          "indexed": false,
          "internalType": "uint256",
          "name": "amount",
          "type": "uint256"
        }
      ],
      "name": "Deposit",
      "type": "event"
    },
    {
      "anonymous": false,
      "inputs": [
        {
          "indexed": false,
          "internalType": "address",
          "name": "to",
          "type": "address"
        },
        {
          "indexed": false,
          "internalType": "uint256",
          "name": "amount",
          "type": "uint256"
        }
      ],
      "name": "EmergencyQuitWanwan",
      "type": "event"
    },
    {
      "anonymous": false,
      "inputs": [
        {
          "indexed": true,
          "internalType": "address",
          "name": "user",
          "type": "address"
        },
        {
          "indexed": true,
          "internalType": "uint256",
          "name": "pid",
          "type": "uint256"
        },
        {
          "indexed": false,
          "internalType": "uint256",
          "name": "amount",
          "type": "uint256"
        }
      ],
      "name": "EmergencyWithdraw",
      "type": "event"
    },
    {
      "anonymous": false,
      "inputs": [
        {
          "indexed": true,
          "internalType": "address",
          "name": "previousOwner",
          "type": "address"
        },
        {
          "indexed": true,
          "internalType": "address",
          "name": "newOwner",
          "type": "address"
        }
      ],
      "name": "OwnershipTransferred",
      "type": "event"
    },
    {
      "anonymous": false,
      "inputs": [
        {
          "indexed": false,
          "internalType": "address",
          "name": "to",
          "type": "address"
        },
        {
          "indexed": false,
          "internalType": "uint256",
          "name": "amount",
          "type": "uint256"
        }
      ],
      "name": "QuitWanwan",
      "type": "event"
    },
    {
      "anonymous": false,
      "inputs": [
        {
          "indexed": true,
          "internalType": "address",
          "name": "user",
          "type": "address"
        },
        {
          "indexed": true,
          "internalType": "uint256",
          "name": "pid",
          "type": "uint256"
        },
        {
          "indexed": false,
          "internalType": "uint256",
          "name": "amount",
          "type": "uint256"
        }
      ],
      "name": "Withdraw",
      "type": "event"
    },
    {
      "inputs": [],
      "name": "owner",
      "outputs": [
        {
          "internalType": "address",
          "name": "",
          "type": "address"
        }
      ],
      "stateMutability": "view",
      "type": "function"
    },
    {
      "inputs": [
        {
          "internalType": "uint256",
          "name": "",
          "type": "uint256"
        }
      ],
      "name": "poolInfo",
      "outputs": [
        {
          "internalType": "contract IERC20",
          "name": "lpToken",
          "type": "address"
        },
        {
          "internalType": "uint256",
          "name": "currentSupply",
          "type": "uint256"
        },
        {
          "internalType": "uint256",
          "name": "bonusStartBlock",
          "type": "uint256"
        },
        {
          "internalType": "uint256",
          "name": "bonusEndBlock",
          "type": "uint256"
        },
        {
          "internalType": "uint256",
          "name": "lastRewardBlock",
          "type": "uint256"
        },
        {
          "internalType": "uint256",
          "name": "accwanWanPerShare",
          "type": "uint256"
        },
        {
          "internalType": "uint256",
          "name": "rewardPerBlock",
          "type": "uint256"
        },
        {
          "internalType": "address",
          "name": "rewardToken",
          "type": "address"
        }
      ],
      "stateMutability": "view",
      "type": "function"
    },
    {
      "inputs": [],
      "name": "renounceOwnership",
      "outputs": [],
      "stateMutability": "nonpayable",
      "type": "function"
    },
    {
      "inputs": [
        {
          "internalType": "address",
          "name": "newOwner",
          "type": "address"
        }
      ],
      "name": "transferOwnership",
      "outputs": [],
      "stateMutability": "nonpayable",
      "type": "function"
    },
    {
      "inputs": [
        {
          "internalType": "uint256",
          "name": "",
          "type": "uint256"
        },
        {
          "internalType": "address",
          "name": "",
          "type": "address"
        }
      ],
      "name": "userInfo",
      "outputs": [
        {
          "internalType": "uint256",
          "name": "amount",
          "type": "uint256"
        },
        {
          "internalType": "uint256",
          "name": "rewardDebt",
          "type": "uint256"
        }
      ],
      "stateMutability": "view",
      "type": "function"
    },
    {
      "inputs": [],
      "name": "wwan",
      "outputs": [
        {
          "internalType": "contract IWWAN",
          "name": "",
          "type": "address"
        }
      ],
      "stateMutability": "view",
      "type": "function"
    },
    {
      "stateMutability": "payable",
      "type": "receive"
    },
    {
      "inputs": [],
      "name": "poolLength",
      "outputs": [
        {
          "internalType": "uint256",
          "name": "",
          "type": "uint256"
        }
      ],
      "stateMutability": "view",
      "type": "function"
    },
    {
      "inputs": [
        {
          "internalType": "contract IERC20",
          "name": "_lpToken",
          "type": "address"
        },
        {
          "internalType": "uint256",
          "name": "_bonusStartBlock",
          "type": "uint256"
        },
        {
          "internalType": "uint256",
          "name": "_bonusEndBlock",
          "type": "uint256"
        },
        {
          "internalType": "uint256",
          "name": "_rewardPerBlock",
          "type": "uint256"
        },
        {
          "internalType": "address",
          "name": "_rewardToken",
          "type": "address"
        }
      ],
      "name": "add",
      "outputs": [],
      "stateMutability": "nonpayable",
      "type": "function"
    },
    {
      "inputs": [
        {
          "internalType": "uint256",
          "name": "_pid",
          "type": "uint256"
        },
        {
          "internalType": "address",
          "name": "_user",
          "type": "address"
        }
      ],
      "name": "pendingReward",
      "outputs": [
        {
          "internalType": "uint256",
          "name": "",
          "type": "uint256"
        },
        {
          "internalType": "uint256",
          "name": "",
          "type": "uint256"
        }
      ],
      "stateMutability": "view",
      "type": "function"
    },
    {
      "inputs": [
        {
          "internalType": "uint256",
          "name": "_pid",
          "type": "uint256"
        },
        {
          "internalType": "uint256",
          "name": "_amount",
          "type": "uint256"
        }
      ],
      "name": "deposit",
      "outputs": [],
      "stateMutability": "nonpayable",
      "type": "function"
    },
    {
      "inputs": [
        {
          "internalType": "uint256",
          "name": "_pid",
          "type": "uint256"
        },
        {
          "internalType": "uint256",
          "name": "_amount",
          "type": "uint256"
        }
      ],
      "name": "withdraw",
      "outputs": [],
      "stateMutability": "nonpayable",
      "type": "function"
    },
    {
      "inputs": [
        {
          "internalType": "uint256",
          "name": "_pid",
          "type": "uint256"
        }
      ],
      "name": "emergencyWithdraw",
      "outputs": [],
      "stateMutability": "nonpayable",
      "type": "function"
    },
    {
      "inputs": [
        {
          "internalType": "address payable",
          "name": "_to",
          "type": "address"
        },
        {
          "internalType": "address",
          "name": "rewardToken",
          "type": "address"
        }
      ],
      "name": "quitRewardToken",
      "outputs": [],
      "stateMutability": "nonpayable",
      "type": "function"
    }
  ],
  "bytecode": "0x608060405234801561001057600080fd5b50604051611d9d380380611d9d8339818101604052602081101561003357600080fd5b505160006100486401000000006100b7810204565b60008054600160a060020a031916600160a060020a0383169081178255604051929350917f8be0079c531659141344cd1fd0a4f28419497f9722a3daafe3b4186f6b6457e0908290a35060018054600160a060020a031916600160a060020a03929092169190911790556100bb565b3390565b611cd3806100ca6000396000f3fe6080604052600436106100e3576000357c0100000000000000000000000000000000000000000000000000000000900480638da5cb5b1161009c5780639c489cbe116100765780639c489cbe14610357578063bbeff0e6146103a6578063e2bbb158146103bb578063f2fde38b146103eb5761014c565b80638da5cb5b1461029b57806393f1a40b146102cc57806398969e821461031e5761014c565b8063081e3eda1461015157806312eefa31146101785780631526fe27146101b3578063441a3e701461022c5780635312ea8e1461025c578063715018a6146102865761014c565b3661014c57600154600160a060020a0316331461014a576040805160e560020a62461bcd02815260206004820152601c60248201527f4f6e6c7920737570706f72742076616c75652066726f6d205757414e00000000604482015290519081900360640190fd5b005b600080fd5b34801561015d57600080fd5b5061016661041e565b60408051918252519081900360200190f35b34801561018457600080fd5b5061014a6004803603604081101561019b57600080fd5b50600160a060020a0381358116916020013516610424565b3480156101bf57600080fd5b506101dd600480360360208110156101d657600080fd5b5035610652565b60408051600160a060020a03998a1681526020810198909852878101969096526060870194909452608086019290925260a085015260c084015290921660e08201529051908190036101000190f35b34801561023857600080fd5b5061014a6004803603604081101561024f57600080fd5b50803590602001356106b2565b34801561026857600080fd5b5061014a6004803603602081101561027f57600080fd5b5035610a1e565b34801561029257600080fd5b5061014a610b20565b3480156102a757600080fd5b506102b0610bd2565b60408051600160a060020a039092168252519081900360200190f35b3480156102d857600080fd5b50610305600480360360408110156102ef57600080fd5b5080359060200135600160a060020a0316610be1565b6040805192835260208301919091528051918290030190f35b34801561032a57600080fd5b506103056004803603604081101561034157600080fd5b5080359060200135600160a060020a0316610c05565b34801561036357600080fd5b5061014a600480360360a081101561037a57600080fd5b50600160a060020a03813581169160208101359160408201359160608101359160809091013516610d58565b3480156103b257600080fd5b506102b0611076565b3480156103c757600080fd5b5061014a600480360360408110156103de57600080fd5b5080359060200135611085565b3480156103f757600080fd5b5061014a6004803603602081101561040e57600080fd5b5035600160a060020a03166113de565b60025490565b61042c6114e9565b600054600160a060020a0390811691161461047f576040805160e560020a62461bcd0281526020600482018190526024820152600080516020611c34833981519152604482015290519081900360640190fd5b600160a060020a0382166104dd576040805160e560020a62461bcd02815260206004820152600860248201527f5f746f203d3d2030000000000000000000000000000000000000000000000000604482015290519081900360640190fd5b600081600160a060020a03166370a08231306040518263ffffffff167c01000000000000000000000000000000000000000000000000000000000281526004018082600160a060020a0316815260200191505060206040518083038186803b15801561054857600080fd5b505afa15801561055c573d6000803e3d6000fd5b505050506040513d602081101561057257600080fd5b50516040805160e060020a63a9059cbb028152600160a060020a0386811660048301526024820184905291519293509084169163a9059cbb916044808201926020929091908290030181600087803b1580156105cd57600080fd5b505af11580156105e1573d6000803e3d6000fd5b505050506040513d60208110156105f757600080fd5b505161064d576040805160e560020a62461bcd02815260206004820152601560248201527f7472616e7366657220746f6b656e206661696c65640000000000000000000000604482015290519081900360640190fd5b505050565b6002818154811061065f57fe5b600091825260209091206008909102018054600182015460028301546003840154600485015460058601546006870154600790970154600160a060020a0396871698509496939592949193909290911688565b60025482106106f9576040805160e560020a62461bcd0281526020600482015260166024820152600080516020611c7e833981519152604482015290519081900360640190fd5b60006002838154811061070857fe5b600091825260208083208684526003825260408085203386529092529220805460089092029092019250831115610789576040805160e560020a62461bcd02815260206004820152601260248201527f77697468647261773a206e6f7420676f6f640000000000000000000000000000604482015290519081900360640190fd5b610792846114ed565b60006107cc82600101546107c664e8d4a510006107c0876005015487600001546115b990919063ffffffff16565b9061161e565b90611660565b90506107f264e8d4a510006107c0856005015485600001546115b990919063ffffffff16565b600183015583156108355781546108099085611660565b8255600183015461081a9085611660565b6001840155825461083590600160a060020a031633866116a2565b80156109e0576001546007840154600160a060020a039081169116141561090757600154604080517f2e1a7d4d000000000000000000000000000000000000000000000000000000008152600481018490529051600160a060020a0390921691632e1a7d4d9160248082019260009290919082900301818387803b1580156108bc57600080fd5b505af11580156108d0573d6000803e3d6000fd5b505060405133925083156108fc02915083906000818181858888f19350505050158015610901573d6000803e3d6000fd5b506109e0565b60078301546040805160e060020a63a9059cbb028152336004820152602481018490529051600160a060020a039092169163a9059cbb916044808201926020929091908290030181600087803b15801561096057600080fd5b505af1158015610974573d6000803e3d6000fd5b505050506040513d602081101561098a57600080fd5b50516109e0576040805160e560020a62461bcd02815260206004820152601560248201527f7472616e7366657220746f6b656e206661696c65640000000000000000000000604482015290519081900360640190fd5b604080518581529051869133917ff279e6a1f5e320cca91135676d9cb6e44ca8a08c0b88342bcdb1144f6511b5689181900360200190a35050505050565b6002548110610a65576040805160e560020a62461bcd0281526020600482015260166024820152600080516020611c7e833981519152604482015290519081900360640190fd5b600060028281548110610a7457fe5b6000918252602080832085845260038252604080852033865290925292208054600890920290920192508015610ae35781546001840154610ab491611660565b60018085019190915582546000808555918401919091558354610ae190600160a060020a031633836116a2565b505b604080518281529051859133917fbb757047c2b5f3974fe26b7c10f732e7bce710b0952a71082702781e62ae05959181900360200190a350505050565b610b286114e9565b600054600160a060020a03908116911614610b7b576040805160e560020a62461bcd0281526020600482018190526024820152600080516020611c34833981519152604482015290519081900360640190fd5b60008054604051600160a060020a03909116907f8be0079c531659141344cd1fd0a4f28419497f9722a3daafe3b4186f6b6457e0908390a36000805473ffffffffffffffffffffffffffffffffffffffff19169055565b600054600160a060020a031690565b60036020908152600092835260408084209091529082529020805460019091015482565b60025460009081908410610c51576040805160e560020a62461bcd0281526020600482015260166024820152600080516020611c7e833981519152604482015290519081900360640190fd5b600060028581548110610c6057fe5b6000918252602080832088845260038083526040808620600160a060020a038b16875290935291842060089390930201600581015491810154909450919290914310610cb0578360030154610cb2565b435b9050836004015481118015610cca5750600184015415155b15610d2b576000610cdf85600401548361170c565b90506000610cfa8660060154836115b990919063ffffffff16565b9050610d26610d1f87600101546107c064e8d4a51000856115b990919063ffffffff16565b8590611718565b935050505b82546001840154610d49906107c664e8d4a510006107c085886115b9565b95509550505050509250929050565b610d606114e9565b600054600160a060020a03908116911614610db3576040805160e560020a62461bcd0281526020600482018190526024820152600080516020611c34833981519152604482015290519081900360640190fd5b824310610e0a576040805160e560020a62461bcd02815260206004820152601d60248201527f626c6f636b2e6e756d626572203e3d20626f6e7573456e64426c6f636b000000604482015290519081900360640190fd5b828410610e4b5760405160e560020a62461bcd028152600401808060200182810382526022815260200180611bf16022913960400191505060405180910390fd5b600160a060020a038516610ea9576040805160e560020a62461bcd02815260206004820152600d60248201527f5f6c70546f6b656e203d3d203000000000000000000000000000000000000000604482015290519081900360640190fd5b6000844311610eb85784610eba565b435b6040805161010081018252600160a060020a039889168152600060208201818152928201988952606082019788526080820193845260a0820181815260c08301978852958a1660e08301908152600280546001810182559252915160089091027f405787fa12a823e0f2b7631cc41b3ba8828b3321ca811111fa75cd3aa3bb5ace81018054928c1673ffffffffffffffffffffffffffffffffffffffff1993841617905592517f405787fa12a823e0f2b7631cc41b3ba8828b3321ca811111fa75cd3aa3bb5acf84015597517f405787fa12a823e0f2b7631cc41b3ba8828b3321ca811111fa75cd3aa3bb5ad083015595517f405787fa12a823e0f2b7631cc41b3ba8828b3321ca811111fa75cd3aa3bb5ad182015590517f405787fa12a823e0f2b7631cc41b3ba8828b3321ca811111fa75cd3aa3bb5ad282015591517f405787fa12a823e0f2b7631cc41b3ba8828b3321ca811111fa75cd3aa3bb5ad38301555090517f405787fa12a823e0f2b7631cc41b3ba8828b3321ca811111fa75cd3aa3bb5ad482015590517f405787fa12a823e0f2b7631cc41b3ba8828b3321ca811111fa75cd3aa3bb5ad59091018054919093169116179055565b600154600160a060020a031681565b60025482106110cc576040805160e560020a62461bcd0281526020600482015260166024820152600080516020611c7e833981519152604482015290519081900360640190fd5b6000600283815481106110db57fe5b9060005260206000209060080201905080600301544310611146576040805160e560020a62461bcd02815260206004820152600b60248201527f616c726561647920656e64000000000000000000000000000000000000000000604482015290519081900360640190fd5b61114f836114ed565b6000838152600360209081526040808320338452909152812060018101546005840154825492939261119192916107c69164e8d4a51000916107c091906115b9565b90506111b764e8d4a510006107c0856005015485600001546115b990919063ffffffff16565b600183015582546111d390600160a060020a0316333087611775565b81546111df9085611718565b825560018301546111f09085611718565b600184015580156113a0576001546007840154600160a060020a03908116911614156112c757600154604080517f2e1a7d4d000000000000000000000000000000000000000000000000000000008152600481018490529051600160a060020a0390921691632e1a7d4d9160248082019260009290919082900301818387803b15801561127c57600080fd5b505af1158015611290573d6000803e3d6000fd5b505060405133925083156108fc02915083906000818181858888f193505050501580156112c1573d6000803e3d6000fd5b506113a0565b60078301546040805160e060020a63a9059cbb028152336004820152602481018490529051600160a060020a039092169163a9059cbb916044808201926020929091908290030181600087803b15801561132057600080fd5b505af1158015611334573d6000803e3d6000fd5b505050506040513d602081101561134a57600080fd5b50516113a0576040805160e560020a62461bcd02815260206004820152601560248201527f7472616e7366657220746f6b656e206661696c65640000000000000000000000604482015290519081900360640190fd5b604080518581529051869133917f90890809c654f11d6e72a28fa60149770a0d11ec6c92319d6ceb2bb0a4ea1a159181900360200190a35050505050565b6113e66114e9565b600054600160a060020a03908116911614611439576040805160e560020a62461bcd0281526020600482018190526024820152600080516020611c34833981519152604482015290519081900360640190fd5b600160a060020a0381166114815760405160e560020a62461bcd028152600401808060200182810382526026815260200180611ba56026913960400191505060405180910390fd5b60008054604051600160a060020a03808516939216917f8be0079c531659141344cd1fd0a4f28419497f9722a3daafe3b4186f6b6457e091a36000805473ffffffffffffffffffffffffffffffffffffffff1916600160a060020a0392909216919091179055565b3390565b6000600282815481106114fc57fe5b90600052602060002090600802019050600081600301544310611523578160030154611525565b435b9050816004015481116115395750506115b6565b600182015461154d576004909101556115b6565b600061155d83600401548361170c565b905060006115788460060154836115b990919063ffffffff16565b90506115a861159d85600101546107c064e8d4a51000856115b990919063ffffffff16565b600586015490611718565b600585015550506004909101555b50565b6000826115c857506000611618565b828202828482816115d557fe5b04146116155760405160e560020a62461bcd028152600401808060200182810382526021815260200180611c136021913960400191505060405180910390fd5b90505b92915050565b600061161583836040518060400160405280601a81526020017f536166654d6174683a206469766973696f6e206279207a65726f000000000000815250611803565b600061161583836040518060400160405280601e81526020017f536166654d6174683a207375627472616374696f6e206f766572666c6f7700008152506118aa565b60408051600160a060020a038416602482015260448082018490528251808303909101815260649091019091526020810180517bffffffffffffffffffffffffffffffffffffffffffffffffffffffff1660e060020a63a9059cbb0217905261064d908490611907565b60006116158284611660565b600082820183811015611615576040805160e560020a62461bcd02815260206004820152601b60248201527f536166654d6174683a206164646974696f6e206f766572666c6f770000000000604482015290519081900360640190fd5b60408051600160a060020a0380861660248301528416604482015260648082018490528251808303909101815260849091019091526020810180517bffffffffffffffffffffffffffffffffffffffffffffffffffffffff167f23b872dd000000000000000000000000000000000000000000000000000000001790526117fd908590611907565b50505050565b600081836118925760405160e560020a62461bcd0281526004018080602001828103825283818151815260200191508051906020019080838360005b8381101561185757818101518382015260200161183f565b50505050905090810190601f1680156118845780820380516001836020036101000a031916815260200191505b509250505060405180910390fd5b50600083858161189e57fe5b049150505b9392505050565b600081848411156118ff5760405160e560020a62461bcd02815260206004820181815283516024840152835190928392604490910191908501908083836000831561185757818101518382015260200161183f565b505050900390565b606061195c826040518060400160405280602081526020017f5361666545524332303a206c6f772d6c6576656c2063616c6c206661696c656481525085600160a060020a03166119bb9092919063ffffffff16565b80519091501561064d5780806020019051602081101561197b57600080fd5b505161064d5760405160e560020a62461bcd02815260040180806020018281038252602a815260200180611c54602a913960400191505060405180910390fd5b60606119ca84846000856119d2565b949350505050565b60603031831115611a175760405160e560020a62461bcd028152600401808060200182810382526026815260200180611bcb6026913960400191505060405180910390fd5b611a2085611b35565b611a74576040805160e560020a62461bcd02815260206004820152601d60248201527f416464726573733a2063616c6c20746f206e6f6e2d636f6e7472616374000000604482015290519081900360640190fd5b6000606086600160a060020a031685876040518082805190602001908083835b60208310611ab35780518252601f199092019160209182019101611a94565b6001836020036101000a03801982511681845116808217855250505050505090500191505060006040518083038185875af1925050503d8060008114611b15576040519150601f19603f3d011682016040523d82523d6000602084013e611b1a565b606091505b5091509150611b2a828286611b3b565b979650505050505050565b3b151590565b60608315611b4a5750816118a3565b825115611b5a5782518084602001fd5b60405160e560020a62461bcd02815260206004820181815284516024840152845185939192839260440191908501908083836000831561185757818101518382015260200161183f56fe4f776e61626c653a206e6577206f776e657220697320746865207a65726f2061646472657373416464726573733a20696e73756666696369656e742062616c616e636520666f722063616c6c5f626f6e75735374617274426c6f636b203e3d205f626f6e7573456e64426c6f636b536166654d6174683a206d756c7469706c69636174696f6e206f766572666c6f774f776e61626c653a2063616c6c6572206973206e6f7420746865206f776e65725361666545524332303a204552433230206f7065726174696f6e20646964206e6f742073756363656564706964203e3d20706f6f6c496e666f2e6c656e67746800000000000000000000a26469706673582212203c92f2310110f631b52c896e69f6f226830ea663943c160e335be3b5810dc05c64736f6c634300060c0033",
  "immutableReferences": {},
  "source": "// SPDX-License-Identifier: MIT\npragma solidity 0.6.12;\n\n\nimport \"@openzeppelin/contracts/token/ERC20/IERC20.sol\";\nimport \"@openzeppelin/contracts/token/ERC20/SafeERC20.sol\";\nimport \"@openzeppelin/contracts/utils/EnumerableSet.sol\";\nimport \"@openzeppelin/contracts/math/SafeMath.sol\";\nimport \"@openzeppelin/contracts/access/Ownable.sol\";\nimport './IWWAN.sol';\n\ncontract WanSwapHive is Ownable {\n    using SafeMath for uint256;\n    using SafeERC20 for IERC20;\n\n    // Info of each user.\n    struct UserInfo {\n        uint256 amount;     // How many LP tokens the user has provided.\n        uint256 rewardDebt; // Reward debt. See explanation below.\n        //\n        // We do some fancy math here. Basically, any point in time, the amount of wanWans\n        // entitled to a user but is pending to be distributed is:\n        //\n        //   pending reward = (user.amount * pool.accwanWanPerShare) - user.rewardDebt\n        //\n        // Whenever a user deposits or withdraws LP tokens to a pool. Here's what happens:\n        //   1. The pool's `accwanWanPerShare` (and `lastRewardBlock`) gets updated.\n        //   2. User receives the pending reward sent to his/her address.\n        //   3. User's `amount` gets updated.\n        //   4. User's `rewardDebt` gets updated.\n    }\n\n    // Info of each pool.\n    struct PoolInfo {\n        IERC20  lpToken;          // Address of LP token contract.\n        uint256 currentSupply;   //\n        uint256 bonusStartBlock;  //\n        uint256 bonusEndBlock;    // Block number when bonus period ends.\n\n        uint256 lastRewardBlock;  // Last block number that wanWans distribution occurs.\n        uint256 accwanWanPerShare;// Accumulated wanWans per share, times 1e12. See below.\n        uint256 rewardPerBlock;   // tokens reward per block.\n        address rewardToken;      // token address for reward\n    }\n\n    IWWAN public wwan;            // The WWAN contract\n    PoolInfo[] public poolInfo;   // Info of each pool.\n    mapping (uint256 => mapping (address => UserInfo)) public userInfo;// Info of each user that stakes LP tokens.\n\n    event Deposit(address indexed user, uint256 indexed pid, uint256 amount);\n    event Withdraw(address indexed user, uint256 indexed pid, uint256 amount);\n    event EmergencyWithdraw(address indexed user, uint256 indexed pid, uint256 amount);\n    event QuitWanwan(address to, uint256 amount);\n    event EmergencyQuitWanwan(address to, uint256 amount);\n\n    constructor(IWWAN _wwan) public {\n        wwan = _wwan;\n    }\n\n    function poolLength() external view returns (uint256) {\n        return poolInfo.length;\n    }\n\n    // Add a new lp to the pool. Can only be called by the owner.\n    // XXX DO NOT add the same LP token more than once. Rewards will be messed up if you do.\n    function add(IERC20 _lpToken,\n                 uint256 _bonusStartBlock,\n                 uint256 _bonusEndBlock,\n                 uint256 _rewardPerBlock,\n                 address _rewardToken\n                 ) public onlyOwner {\n        require(block.number < _bonusEndBlock, \"block.number >= bonusEndBlock\");\n        require(_bonusStartBlock < _bonusEndBlock, \"_bonusStartBlock >= _bonusEndBlock\");\n        require(address(_lpToken) != address(0), \"_lpToken == 0\");\n\n        uint256 lastRewardBlock = block.number > _bonusStartBlock ? block.number : _bonusStartBlock;\n        poolInfo.push(PoolInfo({\n            lpToken: _lpToken,\n            currentSupply: 0,\n            bonusStartBlock: _bonusStartBlock,\n            bonusEndBlock: _bonusEndBlock,\n            lastRewardBlock: lastRewardBlock,\n            accwanWanPerShare: 0,\n            rewardPerBlock: _rewardPerBlock,\n            rewardToken: _rewardToken\n        }));\n    }\n\n    // Return reward multiplier over the given _from to _to block.\n    function getMultiplier(uint256 _from, uint256 _to) internal pure returns (uint256) {\n        return _to.sub(_from);\n    }\n\n    // View function to see pending wanWans on frontend.\n    function pendingReward(uint256 _pid, address _user) external view returns (uint256,uint256) {\n        require(_pid < poolInfo.length,\"pid >= poolInfo.length\");\n        PoolInfo storage pool = poolInfo[_pid];\n        UserInfo storage user = userInfo[_pid][_user];\n        uint256 accwanWanPerShare = pool.accwanWanPerShare;\n\n        uint256 curBlockNumber = (block.number < pool.bonusEndBlock) ? block.number : pool.bonusEndBlock;\n        if (curBlockNumber > pool.lastRewardBlock && pool.currentSupply != 0) {\n            uint256 multiplier = getMultiplier(pool.lastRewardBlock, curBlockNumber);\n            uint256 wanWanReward = multiplier.mul(pool.rewardPerBlock);\n            accwanWanPerShare = accwanWanPerShare.add(wanWanReward.mul(1e12).div(pool.currentSupply));\n        }\n        return (user.amount, user.amount.mul(accwanWanPerShare).div(1e12).sub(user.rewardDebt));\n    }\n\n    // Update reward variables of the given pool to be up-to-date.\n    function updatePool(uint256 _pid) internal {\n        PoolInfo storage pool = poolInfo[_pid];\n        uint256 curBlockNumber = (block.number < pool.bonusEndBlock) ? block.number : pool.bonusEndBlock;\n        if (curBlockNumber <= pool.lastRewardBlock) {\n            return;\n        }\n\n        if (pool.currentSupply == 0) {\n            pool.lastRewardBlock = curBlockNumber;\n            return;\n        }\n\n        uint256 multiplier = getMultiplier(pool.lastRewardBlock, curBlockNumber);\n        uint256 wanWanReward = multiplier.mul(pool.rewardPerBlock);\n        pool.accwanWanPerShare = pool.accwanWanPerShare.add(wanWanReward.mul(1e12).div(pool.currentSupply));\n        pool.lastRewardBlock = curBlockNumber;\n    }\n\n    function deposit(uint256 _pid, uint256 _amount) public {\n        require(_pid < poolInfo.length, \"pid >= poolInfo.length\");\n        PoolInfo storage pool = poolInfo[_pid];\n        require(block.number < pool.bonusEndBlock,\"already end\");\n        \n        updatePool(_pid);\n        \n        UserInfo storage user = userInfo[_pid][msg.sender];\n\n        uint256 pending = user.amount.mul(pool.accwanWanPerShare).div(1e12).sub(user.rewardDebt);\n        user.rewardDebt = user.amount.mul(pool.accwanWanPerShare).div(1e12);\n        \n        pool.lpToken.safeTransferFrom(address(msg.sender), address(this), _amount);\n        user.amount = user.amount.add(_amount);\n        pool.currentSupply = pool.currentSupply.add(_amount);\n\n        if(pending > 0) {\n            if (pool.rewardToken == address(wwan)) { // convert wwan to wan \n                wwan.withdraw(pending);\n                msg.sender.transfer(pending);\n            } else {\n                require(IERC20(pool.rewardToken).transfer(msg.sender, pending), 'transfer token failed');\n            }\n        }\n        emit Deposit(msg.sender, _pid, _amount);\n    }\n\n    // Withdraw LP tokens from MasterChef.\n    function withdraw(uint256 _pid, uint256 _amount) public {\n        require(_pid < poolInfo.length, \"pid >= poolInfo.length\");\n        PoolInfo storage pool = poolInfo[_pid];\n        UserInfo storage user = userInfo[_pid][msg.sender];\n        require(user.amount >= _amount, \"withdraw: not good\");\n        updatePool(_pid);\n        uint256 pending = user.amount.mul(pool.accwanWanPerShare).div(1e12).sub(user.rewardDebt);\n        user.rewardDebt = user.amount.mul(pool.accwanWanPerShare).div(1e12);\n        \n        if(_amount > 0) {\n            user.amount = user.amount.sub(_amount);\n            pool.currentSupply = pool.currentSupply.sub(_amount);\n            pool.lpToken.safeTransfer(address(msg.sender), _amount);\n        }\n\n        if(pending > 0) {\n            if (pool.rewardToken == address(wwan)) { // convert wwan to wan \n                wwan.withdraw(pending);\n                msg.sender.transfer(pending);\n            } else {\n                require(IERC20(pool.rewardToken).transfer(msg.sender, pending), 'transfer token failed');\n            }\n        }\n        emit Withdraw(msg.sender, _pid, _amount);\n    }\n\n    // Withdraw without caring about rewards. EMERGENCY ONLY.\n    function emergencyWithdraw(uint256 _pid) public {\n        require(_pid < poolInfo.length, \"pid >= poolInfo.length\");\n        PoolInfo storage pool = poolInfo[_pid];\n        UserInfo storage user = userInfo[_pid][msg.sender];\n        uint256 amount = user.amount;\n        if(user.amount > 0){\n            pool.currentSupply = pool.currentSupply.sub(user.amount);\n            uint _amount = user.amount;\n            user.amount = 0;\n            user.rewardDebt = 0;\n            pool.lpToken.safeTransfer(address(msg.sender), _amount);\n        }\n        emit EmergencyWithdraw(msg.sender, _pid, amount);\n    }\n\n    function quitRewardToken(address payable _to, address rewardToken) public onlyOwner {\n        require(_to != address(0), \"_to == 0\");\n        uint balance = IERC20(rewardToken).balanceOf(address(this));\n        require(IERC20(rewardToken).transfer(_to, balance), 'transfer token failed');\n    }\n\n    receive() external payable {\n        require(msg.sender == address(wwan), \"Only support value from WWAN\"); // only accept WAN via fallback from the WWAN contract\n    }\n}\n",
  "sourcePath": "/Users/molin/workspace/dapp/wanswap/wanswap-hive-contracts/contracts/WanSwapHiveNotUse.sol",
  "compiler": {
    "name": "solc",
    "version": "0.6.12+commit.27d51765.Emscripten.clang"
  },
  "schemaVersion": "3.1.0",
  "updatedAt": "2020-12-25T02:41:24.027Z",
  "devdoc": {
    "kind": "dev",
    "methods": {
      "owner()": {
        "details": "Returns the address of the current owner."
      },
      "renounceOwnership()": {
        "details": "Leaves the contract without owner. It will not be possible to call `onlyOwner` functions anymore. Can only be called by the current owner. NOTE: Renouncing ownership will leave the contract without an owner, thereby removing any functionality that is only available to the owner."
      },
      "transferOwnership(address)": {
        "details": "Transfers ownership of the contract to a new account (`newOwner`). Can only be called by the current owner."
      }
    },
    "version": 1
  },
  "userdoc": {
    "kind": "user",
    "methods": {},
    "version": 1
  }
}